:0200000480007A
:1000000000000000000000000925A99D0CC28280AC
:100010009B0756001307800C3387E7023E880A06C9
:100020008A073E9514C154C1232C0507B307C700A6
:10003000AE97944B23AA070123AC0701852694CBE6
:100040001441BA95B2958567AE9723AAD7FA95471A
:10005000171700002324F72C82801B1585019B9520
:1000600085011B5585419BD585416304B50001453C
:10007000828097170000A38FA72805458280011171
:1000800022E826E406EC2A84AE8483853400030546
:100090002400EFF09FFC75F9A6852285EF00702CF7
:1000A00081476358A000A947171700002328F726A7
:1000B0008547E2604264A2643E85056182807915CD
:1000C000133515008280011122E826E406EC2A840B
:1000D000AE84EFF0DFFE8D4711C1A2879CC0894737
:1000E000630DF40263E2870209C8171700000327B3
:1000F000E7229307400663D9E702E260426423A047
:100100000400A2640561828011476313E4009CC06F
:10011000E2604264A26405618280E26042648547D5
:100120009CC0A26405618280E26042648D479CC0ED
:10013000A26405618280732500B08280411106E4CB
:10014000EFF07FFF971700009387C71E9863A260A8
:10015000198D88E341018280411106E4EFF0BFFD73
:10016000A2609717000023B7A71C410182801717D0
:1001700000000347371A930710046303F7008280D7
:100180001C411717000003276719A527999F1CC159
:1001900082809717000093876719906301C61862E1
:1001A00018E1906341069715000083A5251729459E
:1001B000A1BD01114AE0171900001309291783375F
:1001C000090022E80061986303B8870083B807013B
:1001D0008C739077947B26E406ECAA84886F18E0F1
:1001E000986095472338140108EC233404010CF07F
:1001F00010F414F89CC81CC818E02285EFF07FF9B1
:100200001C4495CB9C60E260426483B8070003B84D
:1002100087008C6B906F947398779C7B23B014014C
:1002200023B404018CE890EC94F098F49CF80269F3
:10023000A26405618280C84499471CC89305C40024
:10024000EFF07FE8833709000848130604019C6338
:10025000E260A2641CE042640269A94505616DB3D5
:10026000971600009386460B9842971700008387E5
:10027000770A9387F7FB93B71700D98F9CC2930730
:100280002004171700002307F70882809307100443
:1002900017170000A300F7089717000023AE070602
:1002A0008280557186E5A2E126FD80094AF94EF566
:1002B00052F156ED5AE95EE562E1E6FCEAF8EEF449
:1002C000971700009387079939710A8683A9070059
:1002D0003971854683AF470003AF870083AEC700FF
:1002E00003AE070103A3470183A8870103D8C70111
:1002F00003C5E70186168A8794E7930680021717DD
:1003000000001307A79790E394CB23AA3701971611
:1003100000009386260183330701832287018355DA
:10032000C70103390700046790E29716000093861F
:10033000E6FF9CE223ACF70123AEE70123A0D7033D
:1003400023A2C70323A4670223A617032398070346
:100350002389A7028347E7011715000013050594B9
:1003600017170000130707FE2307F4F6A947232EEB
:10037000F764233074F6232454F62316B4F6233896
:1003800024F5233C94F4EF00C0609715000093859A
:100390006591171500001305E591EF00805F971731
:1003A000000083A7E7F681496386075C1715000004
:1003B0001305C592EF00E05D37460F0013060624D3
:1003C000971500009385859717150000130505986C
:1003D000EF00205C171500001305458CEF00605BF3
:1003E0009307401F233CF4F217190000130989F208
:1003F0009717000023AC07F0171B0000130B0BF23C
:10040000171A0000130A8A98971400009384049A1C
:10041000833A84F3171500001305C594D685EF00C1
:100420004057EFF07FD3EFF01FD19717000093876D
:1004300067ED88E3635A50119B8C1A008549054C7F
:100440009D4BEFF0BFE49717000023A107ECEFF0FE
:100450003FE183380A0003388A0083268A01033685
:100460000A010357CA018347EA01930504F71305FC
:1004700004F5233814F7233C04F72324D4F823305D
:10048000C4F82316E4F82307F4F8232684F5EFF0E4
:100490001FBF17170000130727E89337150013062F
:1004A00084F48D4509451CC3232474F5EFF0DFB5B2
:1004B000832684F48D470D4697150000938585E8C3
:1004C00017350000130505592322F4F4EFF05FB44B
:1004D00097170000938787E58863EFF09FCD0307A8
:1004E00009009307000463D8E744130D10048D4AF4
:1004F000930530046A85EFF05FB60327C4F49B06CA
:100500001D006301A73E030709001B9D86011B5DBB
:100510008D41E35FA7FD9B971A00BB8A5701032D0E
:1005200084F4130544F48529BBCDAA032322B4F532
:10053000EFF0FFC3E3973CF1BB8AAA411B973A0057
:100540003B075741BB09B741EFF0FFBE97170000CB
:100550009387C7DABE8A88E3EFF05FBE1717000003
:10056000130747DA186383B70A00998F171700003B
:10057000130747D81CE36352F03C85471717000068
:100580001307C7D81CC3171500001305A587EF0074
:1005900040401705000013056570EF00803F83257C
:1005A0000B0017150000130565899714000093844C
:1005B000E4D7EF00003E9545171500001305058AA6
:1005C000EF00203D97170000938707D58C43171540
:1005D00000001305A58AEF00C03B854517150000F4
:1005E0001305C587EF00E03A97150000838595D283
:1005F000171500001305858AEF00A0399305100434
:10060000171500001305858BEF00A038830509003E
:10061000171500001305858CEF00A0379305200403
:100620001715000013058589EF00A03697350000E7
:1006300083A54544171500001305458CEF00603570
:100640009D451715000013056581EF00803497174D
:100650000000938727CF83A5C765171500001305F2
:10066000E58BEF000033171500001305258DEF0013
:100670004032171500001305658FEF0080319C6034
:10068000171500001305858F8C63EF008030171558
:1006900000001305A590EF00C02F9C601715000007
:1006A000130545938C47EF00C02E814517050000C8
:1006B0001305C57AEF00E02D9C60171500001305A7
:1006C0006593CC47EF00E02C894517050000130522
:1006D000E578EF00002C9C6017150000130585934A
:1006E0008C4BEF00002BC54517050000130505775F
:1006F000EF00202A8C60171500001305A5939714AE
:100700000000938424C2D105EF00A0281715000033
:1007100013054594EF00E027171500001305059712
:10072000EF0020279C6017150000130525858C63BA
:10073000EF002026171500001305C596EF00602571
:100740009C60171500001305E5888C47EF006024B6
:1007500081451705000013056570EF0080239C603C
:100760001715000013050589CC47EF008022854549
:10077000170500001305856EEF00A0219C6017157A
:100780000000130525898C4BEF00A020C9451705F3
:1007900000001305A56CEF00C01F8C60171500004A
:1007A00013054589971400009384C4B3D105EF0065
:1007B000401E171500001305E589EF00801D8325F5
:1007C00044F4171500001305E591EF00801C9545D2
:1007D0001705000013058568EF00A01BCE851715CF
:1007E000000013052592EF00C01AB545170500005B
:1007F0001305C566EF00E019832584F41715000082
:1008000013054592EF00E0189D45170500001305FC
:10081000E564EF0000188325C4F4171500001305E4
:100820006592EF0000178545170500001305056365
:10083000EF002016930504F51715000013058592A7
:10084000EF002015171500001305C593EF00601485
:10085000930504F71715000013054596EF00601384
:100860001715000013058597EF00A012170500006B
:100870001305C542EF00E011033684F3B7470F00BC
:100880009B8707243B87C70297170000938787A69B
:100890009463171500001305E597B3C7C6023347E5
:1008A000D702BE859716000023B2F6A498E0EF00A9
:1008B000400E8C601715000013054599EF00600D80
:1008C000130104F3AE600E64EA744A79AA790A7AD5
:1008D000EA6A4A6BAA6B0A6CE67C467DA67D0145F6
:1008E000696182809305C4F40145EFF0CFFD83B8C0
:1008F000040003B884008868904C83D6C40103C701
:10090000E4019B071D00830509001B9D8701233817
:1009100014F7233C04F72330A4F82324C4F8231647
:10092000D4F82307E4F823203B011B5D8D41CE8AD8
:10093000E3D0A5BDCDB6A54ADDB617050000130569
:10094000E548EF000005033784F3170500001305A1
:10095000E5349B172700B99F9B971700233CF4F2BF
:10096000EF002003971700009387479A9C43E38189
:1009700007AA11B91705000013054539EF006001FA
:1009800025BC1B0110086201EFF0BF9173005010ED
:10099000F5BF597103030500BEEC3C182EFCB2E014
:1009A000B6E4BAE8C2F0C6F43EE463050306930574
:1009B0001500014F8146014793085002294E370622
:1009C0000160B54E5548171500001305658B63048B
:1009D00007121B03D3F91373F30F636568020A034D
:1009E0002A9383270300AA978287A26737070160AB
:1009F00083860700A1073EE41C47A18BF5FF93F710
:100A0000F60F5CC3014F814601470383050085054E
:100A1000E31F03FA65618280A267138787006384FE
:100A2000061283B207003AE41303C003B3D762008F
:100A3000A54F93F6F70037070160715F63E1DF02AE
:100A4000938606031C47A18BF5FF54C37113E30B78
:100A5000E3FBB3D7620093F6F700E3F3DFFE9B8777
:100A600076059B9687019BD68641E9BFA26703B3B3
:100A70000700A1073EE483060300C9D637070160DB
:100A800005031C47A18BF5FF93F6F60F54C38306AD
:100A90000300FDF685BFA26713878700D1C6946364
:100AA0003AE463C70608930F0101930201FFFE8732
:100AB000294F19A06383F20A33E3E6033E87FD174B
:100AC000B3C6E6031B03030323806702E5F6B30600
:100AD000F741FD06FE96138F0F023707016003836F
:100AE00006001C47A18BF5FF9377F30F5CC38506C7
:100AF000E317DFFE01BF63071303630AC3011C464C
:100B0000A18BF5FF1373F30F23226600FDBD1C4676
:100B1000A18BF5FF2322D6011C46A18BF5FF2322D2
:100B2000C601E5B50547D5B594433AE4E3DD06F6DD
:100B3000370701601C47A18BF5FF9307D0025CC308
:100B4000B306D0408DB73AE483E207007143E30F68
:100B50000FEC1143E1BD3A8F4DBD8146A5BFBA866A
:100B60006DB53367B500FD531D8B4DEB9707000046
:100B700083B7C77610619461B372F6003363F600F1
:100B8000BE92B3E262006399720A631ED6021065D8
:100B90009465B372F6003363F600BE92B3E262006E
:100BA000639A72086311D60210699469B372F600F1
:100BB0003363F600BE92B3E262006393720861058C
:100BC000E105E309D6FA13170603939706036318A2
:100BD000F70213170602939706026312F702131720
:100BE000060193970601631CF7001357060393D77A
:100BF00006033305F7409375F50F91E98280419321
:100C0000C1933305F7409375F50F91E18280137717
:100C1000F70F93F7F70F3305F7408280034605007F
:100C200083C60500050585056313D60065FA3305FF
:100C3000D64082802105A105E312D6FE01458280BF
:100C40004105C105E31CD6FC01458280000000007F
:100C50004448525953544F4E452050524F475241E9
:100C60004D2C20534F4D4520535452494E470000C0
:100C700000000000000000004448525953544F4EF9
:100C8000452050524F4752414D2C2031275354207C
:100C9000535452494E4700000A0000000000000073
:100CA000432C2056657273696F6E20322E3200001D
:100CB0004468727973746F6E652042656E63686D07
:100CC00061726B2C2056657273696F6E2025730AF2
:100CD000000000000000000050726F6772616D201C
:100CE000636F6D70696C6564207769746820277222
:100CF00065676973746572272061747472696275BF
:100D000074650A000000000050726F6772616D2008
:100D1000636F6D70696C656420776974686F757452
:100D20002027726567697374657227206174747215
:100D300069627574650A000072646379636C652882
:100D400029000000000000005573696E67202573BC
:100D50002C20485A3D25640A0000000000000000D5
:100D6000547279696E672025642072756E732074E1
:100D700068726F756768204468727973746F6E6506
:100D80003A0A0000000000004448525953544F4EA4
:100D9000452050524F4752414D2C2032274E44207F
:100DA000535452494E4700004448525953544F4EF1
:100DB000452050524F4752414D2C2033275244205A
:100DC000535452494E4700004D6561737572656416
:100DD0002074696D6520746F6F20736D616C6C2079
:100DE000746F206F627461696E206D65616E696EEB
:100DF0006766756C20726573756C74730A00000009
:100E000046696E616C2076616C756573206F662033
:100E1000746865207661726961626C6573207573B0
:100E2000656420696E207468652062656E63686D14
:100E300061726B3A0A000000496E745F476C6F6222
:100E40003A20202020202020202020202025640A55
:100E50000000000000000000202020202020202092
:100E600073686F756C642062653A20202025640ADF
:100E70000000000000000000426F6F6C5F476C6F65
:100E8000623A202020202020202020202025640AD3
:100E9000000000000000000043685F315F476C6F96
:100EA000623A202020202020202020202025630AB4
:100EB0000000000000000000202020202020202032
:100EC00073686F756C642062653A20202025630A80
:100ED000000000000000000043685F325F476C6F55
:100EE000623A202020202020202020202025630A74
:100EF00000000000000000004172725F315F476C2B
:100F00006F625B385D3A2020202020202025640A73
:100F100000000000000000004172725F325F476C09
:100F20006F625B385D5B375D3A2020202025640AC4
:100F300000000000000000002020202020202020B1
:100F400073686F756C642062653A2020204E756D61
:100F50006265725F4F665F52756E73202B20313071
:100F60000A000000000000005074725F476C6F625E
:100F70002D3E0A000000000020205074725F436F75
:100F80006D703A2020202020202020202025640A77
:100F90000000000000000000202020202020202051
:100FA00073686F756C642062653A20202028696D33
:100FB000706C656D656E746174696F6E2D646570BB
:100FC000656E64656E74290A000000000000000070
:100FD000202044697363723A2020202020202020A2
:100FE000202020202025640A0000000000000000CE
:100FF0002020456E756D5F436F6D703A2020202074
:10100000202020202025640A0000000000000000AD
:101010002020496E745F436F6D703A20202020209D
:10102000202020202025640A00000000000000008D
:1010300020205374725F436F6D703A20202020206F
:10104000202020202025730A00000000000000005E
:10105000202020202020202073686F756C6420627F
:10106000653A2020204448525953544F4E45205051
:10107000524F4752414D2C20534F4D45205354520F
:10108000494E470A000000004E6578745F50747244
:101090005F476C6F622D3E0A0000000000000000F8
:1010A000202020202020202073686F756C6420622F
:1010B000653A20202028696D706C656D656E7461DD
:1010C00074696F6E2D646570656E64656E74292C2D
:1010D0002073616D652061732061626F76650A001F
:1010E000496E745F315F4C6F633A202020202020CE
:1010F000202020202025640A0000000000000000BD
:10110000496E745F325F4C6F633A202020202020AC
:10111000202020202025640A00000000000000009C
:10112000496E745F335F4C6F633A2020202020208B
:10113000202020202025640A00000000000000007C
:10114000456E756D5F4C6F633A2020202020202073
:10115000202020202025640A00000000000000005C
:101160005374725F315F4C6F633A2020202020203F
:10117000202020202025730A00000000000000002D
:10118000202020202020202073686F756C6420624E
:10119000653A2020204448525953544F4E45205020
:1011A000524F4752414D2C20312753542053545213
:1011B000494E470A000000005374725F325F4C6F63
:1011C000633A202020202020202020202025730A80
:1011D000000000000000000020202020202020200F
:1011E00073686F756C642062653A20202044485211
:1011F0005953544F4E452050524F4752414D2C2089
:1012000032274E4420535452494E470A00000000F2
:101210004D6963726F7365636F6E647320666F727E
:10122000206F6E652072756E207468726F756768C6
:10123000204468727973746F6E653A20256C640A75
:1012400000000000000000004468727973746F6E43
:10125000657320706572205365636F6E643A202059
:10126000202020202020202020202020202020207E
:1012700020202020256C640A000000006EF7FFFF8C
:101280001AF8FFFF88F7FFFF88F7FFFF88F7FFFFD7
:10129000DAF8FFFF88F7FFFF88F7FFFF88F7FFFF07
:1012A000E2F8FFFF88F7FFFF88F7FFFF88F7FFFFEF
:1012B00088F7FFFF88F7FFFF88F7FFFFF0F7FFFFD2
:1012C00088F7FFFF88F7FFFF88F7FFFF88F7FFFF2A
:1012D0009CF7FFFF000000007F7F7F7F7F7F7F7F85
:0400000580000982EC
:00000001FF
